{
  "contractName": "Message",
  "abi": [
    {
      "constant": true,
      "inputs": [
        {
          "name": "",
          "type": "uint256"
        }
      ],
      "name": "messagebody",
      "outputs": [
        {
          "name": "addr",
          "type": "address"
        },
        {
          "name": "time",
          "type": "string"
        },
        {
          "name": "message",
          "type": "string"
        },
        {
          "name": "messageStatus",
          "type": "string"
        }
      ],
      "payable": false,
      "stateMutability": "view",
      "type": "function"
    },
    {
      "constant": true,
      "inputs": [],
      "name": "messageCount",
      "outputs": [
        {
          "name": "",
          "type": "uint256"
        }
      ],
      "payable": false,
      "stateMutability": "view",
      "type": "function"
    },
    {
      "constant": false,
      "inputs": [
        {
          "name": "_addr",
          "type": "address"
        },
        {
          "name": "_time",
          "type": "string"
        },
        {
          "name": "_message",
          "type": "string"
        },
        {
          "name": "_messagestatus",
          "type": "string"
        }
      ],
      "name": "sendMessage",
      "outputs": [],
      "payable": false,
      "stateMutability": "nonpayable",
      "type": "function"
    }
  ],
  "bytecode": "0x608060405234801561001057600080fd5b50610741806100206000396000f300608060405260043610610057576000357c0100000000000000000000000000000000000000000000000000000000900463ffffffff16806301d4a82f1461005c5780630dbf6636146101715780633dbcc8d114610322575b600080fd5b34801561006857600080fd5b5061016f600480360381019080803573ffffffffffffffffffffffffffffffffffffffff169060200190929190803590602001908201803590602001908080601f0160208091040260200160405190810160405280939291908181526020018383808284378201915050505050509192919290803590602001908201803590602001908080601f0160208091040260200160405190810160405280939291908181526020018383808284378201915050505050509192919290803590602001908201803590602001908080601f016020809104026020016040519081016040528093929190818152602001838380828437820191505050505050919291929050505061034d565b005b34801561017d57600080fd5b5061019c60048036038101908080359060200190929190505050610452565b604051808573ffffffffffffffffffffffffffffffffffffffff1673ffffffffffffffffffffffffffffffffffffffff168152602001806020018060200180602001848103845287818151815260200191508051906020019080838360005b838110156102165780820151818401526020810190506101fb565b50505050905090810190601f1680156102435780820380516001836020036101000a031916815260200191505b50848103835286818151815260200191508051906020019080838360005b8381101561027c578082015181840152602081019050610261565b50505050905090810190601f1680156102a95780820380516001836020036101000a031916815260200191505b50848103825285818151815260200191508051906020019080838360005b838110156102e25780820151818401526020810190506102c7565b50505050905090810190601f16801561030f5780820380516001836020036101000a031916815260200191505b5097505050505050505060405180910390f35b34801561032e57600080fd5b5061033761066a565b6040518082815260200191505060405180910390f35b6001600081548092919060010191905055506080604051908101604052808573ffffffffffffffffffffffffffffffffffffffff16815260200184815260200183815260200182815250600080600154815260200190815260200160002060008201518160000160006101000a81548173ffffffffffffffffffffffffffffffffffffffff021916908373ffffffffffffffffffffffffffffffffffffffff160217905550602082015181600101908051906020019061040e929190610670565b50604082015181600201908051906020019061042b929190610670565b506060820151816003019080519060200190610448929190610670565b5090505050505050565b60006020528060005260406000206000915090508060000160009054906101000a900473ffffffffffffffffffffffffffffffffffffffff1690806001018054600181600116156101000203166002900480601f0160208091040260200160405190810160405280929190818152602001828054600181600116156101000203166002900480156105245780601f106104f957610100808354040283529160200191610524565b820191906000526020600020905b81548152906001019060200180831161050757829003601f168201915b505050505090806002018054600181600116156101000203166002900480601f0160208091040260200160405190810160405280929190818152602001828054600181600116156101000203166002900480156105c25780601f10610597576101008083540402835291602001916105c2565b820191906000526020600020905b8154815290600101906020018083116105a557829003601f168201915b505050505090806003018054600181600116156101000203166002900480601f0160208091040260200160405190810160405280929190818152602001828054600181600116156101000203166002900480156106605780601f1061063557610100808354040283529160200191610660565b820191906000526020600020905b81548152906001019060200180831161064357829003601f168201915b5050505050905084565b60015481565b828054600181600116156101000203166002900490600052602060002090601f016020900481019282601f106106b157805160ff19168380011785556106df565b828001600101855582156106df579182015b828111156106de5782518255916020019190600101906106c3565b5b5090506106ec91906106f0565b5090565b61071291905b8082111561070e5760008160009055506001016106f6565b5090565b905600a165627a7a72305820554c43dbe80691ec911d91b9af639757231220e802e71c6953c0818be64691790029",
  "source": "pragma solidity ^0.4.24;\r\n\r\ncontract Message {\r\n\r\n\tstruct MessageBody {\r\n\t\taddress addr;\r\n\t\tstring time;\r\n\t\tstring message;\r\n\t\tstring messageStatus;\r\n\t\t\r\n\t}\r\n\t//store the messages\r\n\tmapping (uint => MessageBody) public messagebody;\r\n\r\n\t//to index the mapping\r\n\tuint public messageCount ;\r\n\r\n\r\n\t//function to receive a messagebody\r\n\t\r\n\tfunction sendMessage (address _addr, string _time, string _message, string _messagestatus) public{\r\n\t\tmessageCount++;\r\n\t\tmessagebody[messageCount]=MessageBody(_addr,_time,_message, _messagestatus);\r\n\t}\r\n\t\r\n\t\r\n\t\r\n\r\n\r\n//end of cc\r\n}\r\n",
  "sourcePath": "H:\\Project iridescent995\\GIT\\Blockchain-based-Messaging-dApp\\Blockchain-code\\contracts\\Message.sol",
  "compiler": {
    "name": "solc",
    "version": "0.4.24+commit.e67f0147.Emscripten.clang"
  },
  "schemaVersion": "2.0.1",
  "updatedAt": "2018-10-15T16:27:50.265Z"
}